ID,Payload,Message,Response
"0","b'\\x00'","b'8=FIX.4.2|9=147|35=D|34=1|49=BANZAI|52=20241208-12:19:11.345|56=FIXIMULATORTRADE|11=1-1733660350.454578|21=1|38=500|40=1|54=1|55=\\x00|44=-64|59=1|60=20241208-12:19:10|10=038|'","b'8=FIX.4.2|9=148|35=D|34=6|49=BANZAI|52=20241208-12:19:11.355|56=FIXIMULATORTRADE|11=1-1733660350.454578|21=1|38=500|40=1|44=-64|54=1|55=\\\\0x00|59=1|60=20241208-12:19:10|10=138|'"
"1","b'\\x02'","b'8=FIX.4.2|9=147|35=D|34=1|49=BANZAI|52=20241208-12:19:11.510|56=FIXIMULATORTRADE|11=1-1733660350.454578|21=1|38=500|40=1|54=1|55=\\x02|44=-64|59=1|60=20241208-12:19:10|10=038|'","b'8=FIX.4.2|9=148|35=D|34=7|49=BANZAI|52=20241208-12:19:11.522|56=FIXIMULATORTRADE|11=1-1733660350.454578|21=1|38=500|40=1|44=-64|54=1|55=\\\\0x02|59=1|60=20241208-12:19:10|10=137|'"
"2","b'\\x03'","b'8=FIX.4.2|9=147|35=D|34=1|49=BANZAI|52=20241208-12:19:11.679|56=FIXIMULATORTRADE|11=1-1733660350.454578|21=1|38=500|40=1|54=1|55=\\x03|44=-64|59=1|60=20241208-12:19:10|10=038|'","b'8=FIX.4.2|9=148|35=D|34=8|49=BANZAI|52=20241208-12:19:11.689|56=FIXIMULATORTRADE|11=1-1733660350.454578|21=1|38=500|40=1|44=-64|54=1|55=\\\\0x03|59=1|60=20241208-12:19:10|10=153|'"
"3","b'\\x04'","b'8=FIX.4.2|9=147|35=D|34=1|49=BANZAI|52=20241208-12:19:11.845|56=FIXIMULATORTRADE|11=1-1733660350.454578|21=1|38=500|40=1|54=1|55=\\x04|44=-64|59=1|60=20241208-12:19:10|10=038|'","b'8=FIX.4.2|9=148|35=D|34=9|49=BANZAI|52=20241208-12:19:11.854|56=FIXIMULATORTRADE|11=1-1733660350.454578|21=1|38=500|40=1|44=-64|54=1|55=\\\\0x04|59=1|60=20241208-12:19:10|10=149|'"
"4","b'\\x05'","b'8=FIX.4.2|9=147|35=D|34=1|49=BANZAI|52=20241208-12:19:12.009|56=FIXIMULATORTRADE|11=1-1733660350.454578|21=1|38=500|40=1|54=1|55=\\x05|44=-64|59=1|60=20241208-12:19:10|10=038|'","b'8=FIX.4.2|9=149|35=D|34=10|49=BANZAI|52=20241208-12:19:12.016|56=FIXIMULATORTRADE|11=1-1733660350.454578|21=1|38=500|40=1|44=-64|54=1|55=\\\\0x05|59=1|60=20241208-12:19:10|10=182|'"
"5","b'\\x06'","b'8=FIX.4.2|9=147|35=D|34=1|49=BANZAI|52=20241208-12:19:12.171|56=FIXIMULATORTRADE|11=1-1733660350.454578|21=1|38=500|40=1|54=1|55=\\x06|44=-64|59=1|60=20241208-12:19:10|10=038|'","b'8=FIX.4.2|9=149|35=D|34=11|49=BANZAI|52=20241208-12:19:12.181|56=FIXIMULATORTRADE|11=1-1733660350.454578|21=1|38=500|40=1|44=-64|54=1|55=\\\\0x06|59=1|60=20241208-12:19:10|10=187|'"
"6","b'\\x07'","b'8=FIX.4.2|9=147|35=D|34=1|49=BANZAI|52=20241208-12:19:12.336|56=FIXIMULATORTRADE|11=1-1733660350.454578|21=1|38=500|40=1|54=1|55=\\x07|44=-64|59=1|60=20241208-12:19:10|10=038|'","b'8=FIX.4.2|9=149|35=D|34=12|49=BANZAI|52=20241208-12:19:12.346|56=FIXIMULATORTRADE|11=1-1733660350.454578|21=1|38=500|40=1|44=-64|54=1|55=\\\\0x07|59=1|60=20241208-12:19:10|10=192|'"
"7","b'\\x08'","b'8=FIX.4.2|9=147|35=D|34=1|49=BANZAI|52=20241208-12:19:12.502|56=FIXIMULATORTRADE|11=1-1733660350.454578|21=1|38=500|40=1|54=1|55=\\x08|44=-64|59=1|60=20241208-12:19:10|10=038|'","b'8=FIX.4.2|9=149|35=D|34=13|49=BANZAI|52=20241208-12:19:12.512|56=FIXIMULATORTRADE|11=1-1733660350.454578|21=1|38=500|40=1|44=-64|54=1|55=\\\\0x08|59=1|60=20241208-12:19:10|10=189|'"
"8","b'\\t'","b'8=FIX.4.2|9=147|35=D|34=1|49=BANZAI|52=20241208-12:19:12.669|56=FIXIMULATORTRADE|11=1-1733660350.454578|21=1|38=500|40=1|54=1|55=\\t|44=-64|59=1|60=20241208-12:19:10|10=038|'","b'8=FIX.4.2|9=149|35=D|34=14|49=BANZAI|52=20241208-12:19:12.677|56=FIXIMULATORTRADE|11=1-1733660350.454578|21=1|38=500|40=1|44=-64|54=1|55=\\t|59=1|60=20241208-12:19:10|10=203|'"
"9","b'\\\\n'","b'8=FIX.4.2|9=147|35=D|34=1|49=BANZAI|52=20241208-12:19:12.832|56=FIXIMULATORTRADE|11=1-1733660350.454578|21=1|38=500|40=1|54=1|55=\\\\n|44=-64|59=1|60=20241208-12:19:10|10=038|'","b'8=FIX.4.2|9=149|35=D|34=15|49=BANZAI|52=20241208-12:19:12.842|56=FIXIMULATORTRADE|11=1-1733660350.454578|21=1|38=500|40=1|44=-64|54=1|55=\\\\n|59=1|60=20241208-12:19:10|10=199|'"
"10","b'\\x0b'","b'8=FIX.4.2|9=147|35=D|34=1|49=BANZAI|52=20241208-12:19:12.997|56=FIXIMULATORTRADE|11=1-1733660350.454578|21=1|38=500|40=1|54=1|55=\\x0b|44=-64|59=1|60=20241208-12:19:10|10=038|'","b'8=FIX.4.2|9=149|35=D|34=16|49=BANZAI|52=20241208-12:19:13.004|56=FIXIMULATORTRADE|11=1-1733660350.454578|21=1|38=500|40=1|44=-64|54=1|55=\\x0b|59=1|60=20241208-12:19:10|10=192|'"
"11","b'\\x0c'","b'8=FIX.4.2|9=147|35=D|34=1|49=BANZAI|52=20241208-12:19:13.159|56=FIXIMULATORTRADE|11=1-1733660350.454578|21=1|38=500|40=1|54=1|55=\\x0c|44=-64|59=1|60=20241208-12:19:10|10=038|'","b'8=FIX.4.2|9=149|35=D|34=17|49=BANZAI|52=20241208-12:19:13.165|56=FIXIMULATORTRADE|11=1-1733660350.454578|21=1|38=500|40=1|44=-64|54=1|55=\\x0c|59=1|60=20241208-12:19:10|10=202|'"
"12","b'\\r'","b'8=FIX.4.2|9=147|35=D|34=1|49=BANZAI|52=20241208-12:19:13.320|56=FIXIMULATORTRADE|11=1-1733660350.454578|21=1|38=500|40=1|54=1|55=\\r|44=-64|59=1|60=20241208-12:19:10|10=038|'","b'8=FIX.4.2|9=149|35=D|34=18|49=BANZAI|52=20241208-12:19:13.331|56=FIXIMULATORTRADE|11=1-1733660350.454578|21=1|38=500|40=1|44=-64|54=1|55=\\r|59=1|60=20241208-12:19:10|10=199|'"
"13","b'\\x0e'","b'8=FIX.4.2|9=147|35=D|34=1|49=BANZAI|52=20241208-12:19:13.488|56=FIXIMULATORTRADE|11=1-1733660350.454578|21=1|38=500|40=1|54=1|55=\\x0e|44=-64|59=1|60=20241208-12:19:10|10=038|'","b'8=FIX.4.2|9=149|35=D|34=19|49=BANZAI|52=20241208-12:19:13.497|56=FIXIMULATORTRADE|11=1-1733660350.454578|21=1|38=500|40=1|44=-64|54=1|55=\\\\0x0e|59=1|60=20241208-12:19:10|10=214|'"
"14","b'\\x0f'","b'8=FIX.4.2|9=147|35=D|34=1|49=BANZAI|52=20241208-12:19:13.652|56=FIXIMULATORTRADE|11=1-1733660350.454578|21=1|38=500|40=1|54=1|55=\\x0f|44=-64|59=1|60=20241208-12:19:10|10=038|'","b'8=FIX.4.2|9=149|35=D|34=20|49=BANZAI|52=20241208-12:19:13.661|56=FIXIMULATORTRADE|11=1-1733660350.454578|21=1|38=500|40=1|44=-64|54=1|55=\\\\0x0f|59=1|60=20241208-12:19:10|10=200|'"
"15","b'\\x10'","b'8=FIX.4.2|9=147|35=D|34=1|49=BANZAI|52=20241208-12:19:13.816|56=FIXIMULATORTRADE|11=1-1733660350.454578|21=1|38=500|40=1|54=1|55=\\x10|44=-64|59=1|60=20241208-12:19:10|10=038|'","b'8=FIX.4.2|9=149|35=D|34=21|49=BANZAI|52=20241208-12:19:13.827|56=FIXIMULATORTRADE|11=1-1733660350.454578|21=1|38=500|40=1|44=-64|54=1|55=\\\\0x10|59=1|60=20241208-12:19:10|10=206|'"
"16","b'\\x11'","b'8=FIX.4.2|9=147|35=D|34=1|49=BANZAI|52=20241208-12:19:13.983|56=FIXIMULATORTRADE|11=1-1733660350.454578|21=1|38=500|40=1|54=1|55=\\x11|44=-64|59=1|60=20241208-12:19:10|10=038|'","b'8=FIX.4.2|9=149|35=D|34=22|49=BANZAI|52=20241208-12:19:13.993|56=FIXIMULATORTRADE|11=1-1733660350.454578|21=1|38=500|40=1|44=-64|54=1|55=\\\\0x11|59=1|60=20241208-12:19:10|10=212|'"
"17","b'\\x12'","b'8=FIX.4.2|9=147|35=D|34=1|49=BANZAI|52=20241208-12:19:14.149|56=FIXIMULATORTRADE|11=1-1733660350.454578|21=1|38=500|40=1|54=1|55=\\x12|44=-64|59=1|60=20241208-12:19:10|10=038|'","b'8=FIX.4.2|9=149|35=D|34=23|49=BANZAI|52=20241208-12:19:14.161|56=FIXIMULATORTRADE|11=1-1733660350.454578|21=1|38=500|40=1|44=-64|54=1|55=\\\\0x12|59=1|60=20241208-12:19:10|10=202|'"
"18","b'\\x13'","b'8=FIX.4.2|9=147|35=D|34=1|49=BANZAI|52=20241208-12:19:14.318|56=FIXIMULATORTRADE|11=1-1733660350.454578|21=1|38=500|40=1|54=1|55=\\x13|44=-64|59=1|60=20241208-12:19:10|10=038|'","b'8=FIX.4.2|9=149|35=D|34=24|49=BANZAI|52=20241208-12:19:14.329|56=FIXIMULATORTRADE|11=1-1733660350.454578|21=1|38=500|40=1|44=-64|54=1|55=\\\\0x13|59=1|60=20241208-12:19:10|10=210|'"
"19","b'\\x14'","b'8=FIX.4.2|9=147|35=D|34=1|49=BANZAI|52=20241208-12:19:14.486|56=FIXIMULATORTRADE|11=1-1733660350.454578|21=1|38=500|40=1|54=1|55=\\x14|44=-64|59=1|60=20241208-12:19:10|10=038|'","b'8=FIX.4.2|9=149|35=D|34=25|49=BANZAI|52=20241208-12:19:14.496|56=FIXIMULATORTRADE|11=1-1733660350.454578|21=1|38=500|40=1|44=-64|54=1|55=\\\\0x14|59=1|60=20241208-12:19:10|10=217|'"
"20","b'\\x15'","b'8=FIX.4.2|9=147|35=D|34=1|49=BANZAI|52=20241208-12:19:14.651|56=FIXIMULATORTRADE|11=1-1733660350.454578|21=1|38=500|40=1|54=1|55=\\x15|44=-64|59=1|60=20241208-12:19:10|10=038|'","b'8=FIX.4.2|9=149|35=D|34=26|49=BANZAI|52=20241208-12:19:14.661|56=FIXIMULATORTRADE|11=1-1733660350.454578|21=1|38=500|40=1|44=-64|54=1|55=\\\\0x15|59=1|60=20241208-12:19:10|10=213|'"
"21","b'\\x16'","b'8=FIX.4.2|9=147|35=D|34=1|49=BANZAI|52=20241208-12:19:14.816|56=FIXIMULATORTRADE|11=1-1733660350.454578|21=1|38=500|40=1|54=1|55=\\x16|44=-64|59=1|60=20241208-12:19:10|10=038|'","b'8=FIX.4.2|9=149|35=D|34=27|49=BANZAI|52=20241208-12:19:14.826|56=FIXIMULATORTRADE|11=1-1733660350.454578|21=1|38=500|40=1|44=-64|54=1|55=\\\\0x16|59=1|60=20241208-12:19:10|10=218|'"
"22","b'\\x17'","b'8=FIX.4.2|9=147|35=D|34=1|49=BANZAI|52=20241208-12:19:14.982|56=FIXIMULATORTRADE|11=1-1733660350.454578|21=1|38=500|40=1|54=1|55=\\x17|44=-64|59=1|60=20241208-12:19:10|10=038|'","b'8=FIX.4.2|9=149|35=D|34=28|49=BANZAI|52=20241208-12:19:14.990|56=FIXIMULATORTRADE|11=1-1733660350.454578|21=1|38=500|40=1|44=-64|54=1|55=\\\\0x17|59=1|60=20241208-12:19:10|10=222|'"
"23","b'\\x18'","b'8=FIX.4.2|9=147|35=D|34=1|49=BANZAI|52=20241208-12:19:15.144|56=FIXIMULATORTRADE|11=1-1733660350.454578|21=1|38=500|40=1|54=1|55=\\x18|44=-64|59=1|60=20241208-12:19:10|10=038|'","b'8=FIX.4.2|9=149|35=D|34=29|49=BANZAI|52=20241208-12:19:15.154|56=FIXIMULATORTRADE|11=1-1733660350.454578|21=1|38=500|40=1|44=-64|54=1|55=\\\\0x18|59=1|60=20241208-12:19:10|10=217|'"
"24","b'\\x19'","b'8=FIX.4.2|9=147|35=D|34=1|49=BANZAI|52=20241208-12:19:15.310|56=FIXIMULATORTRADE|11=1-1733660350.454578|21=1|38=500|40=1|54=1|55=\\x19|44=-64|59=1|60=20241208-12:19:10|10=038|'","b'8=FIX.4.2|9=149|35=D|34=30|49=BANZAI|52=20241208-12:19:15.320|56=FIXIMULATORTRADE|11=1-1733660350.454578|21=1|38=500|40=1|44=-64|54=1|55=\\\\0x19|59=1|60=20241208-12:19:10|10=205|'"
"25","b'\\x1a'","b'8=FIX.4.2|9=147|35=D|34=1|49=BANZAI|52=20241208-12:19:15.476|56=FIXIMULATORTRADE|11=1-1733660350.454578|21=1|38=500|40=1|54=1|55=\\x1a|44=-64|59=1|60=20241208-12:19:10|10=038|'","b'8=FIX.4.2|9=149|35=D|34=31|49=BANZAI|52=20241208-12:19:15.483|56=FIXIMULATORTRADE|11=1-1733660350.454578|21=1|38=500|40=1|44=-64|54=1|55=\\\\0x1a|59=1|60=20241208-12:19:10|10=217|'"
"26","b'\\x1b'","b'8=FIX.4.2|9=147|35=D|34=1|49=BANZAI|52=20241208-12:19:15.637|56=FIXIMULATORTRADE|11=1-1733660350.454578|21=1|38=500|40=1|54=1|55=\\x1b|44=-64|59=1|60=20241208-12:19:10|10=038|'","b'8=FIX.4.2|9=149|35=D|34=32|49=BANZAI|52=20241208-12:19:15.644|56=FIXIMULATORTRADE|11=1-1733660350.454578|21=1|38=500|40=1|44=-64|54=1|55=\\\\0x1b|59=1|60=20241208-12:19:10|10=218|'"
"27","b'\\x1c'","b'8=FIX.4.2|9=147|35=D|34=1|49=BANZAI|52=20241208-12:19:15.799|56=FIXIMULATORTRADE|11=1-1733660350.454578|21=1|38=500|40=1|54=1|55=\\x1c|44=-64|59=1|60=20241208-12:19:10|10=038|'","b'8=FIX.4.2|9=149|35=D|34=33|49=BANZAI|52=20241208-12:19:15.808|56=FIXIMULATORTRADE|11=1-1733660350.454578|21=1|38=500|40=1|44=-64|54=1|55=\\\\0x1c|59=1|60=20241208-12:19:10|10=222|'"
"28","b'\\x1d'","b'8=FIX.4.2|9=147|35=D|34=1|49=BANZAI|52=20241208-12:19:15.964|56=FIXIMULATORTRADE|11=1-1733660350.454578|21=1|38=500|40=1|54=1|55=\\x1d|44=-64|59=1|60=20241208-12:19:10|10=038|'","b'8=FIX.4.2|9=149|35=D|34=34|49=BANZAI|52=20241208-12:19:15.972|56=FIXIMULATORTRADE|11=1-1733660350.454578|21=1|38=500|40=1|44=-64|54=1|55=\\\\0x1d|59=1|60=20241208-12:19:10|10=226|'"
"29","b'\\x1e'","b'8=FIX.4.2|9=147|35=D|34=1|49=BANZAI|52=20241208-12:19:16.127|56=FIXIMULATORTRADE|11=1-1733660350.454578|21=1|38=500|40=1|54=1|55=\\x1e|44=-64|59=1|60=20241208-12:19:10|10=038|'","b'8=FIX.4.2|9=149|35=D|34=35|49=BANZAI|52=20241208-12:19:16.134|56=FIXIMULATORTRADE|11=1-1733660350.454578|21=1|38=500|40=1|44=-64|54=1|55=\\\\0x1e|59=1|60=20241208-12:19:10|10=219|'"
"30","b'\\x1f'","b'8=FIX.4.2|9=147|35=D|34=1|49=BANZAI|52=20241208-12:19:16.289|56=FIXIMULATORTRADE|11=1-1733660350.454578|21=1|38=500|40=1|54=1|55=\\x1f|44=-64|59=1|60=20241208-12:19:10|10=038|'","b'8=FIX.4.2|9=149|35=D|34=36|49=BANZAI|52=20241208-12:19:16.296|56=FIXIMULATORTRADE|11=1-1733660350.454578|21=1|38=500|40=1|44=-64|54=1|55=\\\\0x1f|59=1|60=20241208-12:19:10|10=230|'"
"31","b' '","b'8=FIX.4.2|9=147|35=D|34=1|49=BANZAI|52=20241208-12:19:16.451|56=FIXIMULATORTRADE|11=1-1733660350.454578|21=1|38=500|40=1|54=1|55= |44=-64|59=1|60=20241208-12:19:10|10=038|'","b'8=FIX.4.2|9=149|35=D|34=37|49=BANZAI|52=20241208-12:19:16.461|56=FIXIMULATORTRADE|11=1-1733660350.454578|21=1|38=500|40=1|44=-64|54=1|55= |59=1|60=20241208-12:19:10|10=226|'"
"32","b'!'","b'8=FIX.4.2|9=147|35=D|34=1|49=BANZAI|52=20241208-12:19:16.616|56=FIXIMULATORTRADE|11=1-1733660350.454578|21=1|38=500|40=1|54=1|55=!|44=-64|59=1|60=20241208-12:19:10|10=038|'","b'8=FIX.4.2|9=149|35=D|34=38|49=BANZAI|52=20241208-12:19:16.626|56=FIXIMULATORTRADE|11=1-1733660350.454578|21=1|38=500|40=1|44=-64|54=1|55=!|59=1|60=20241208-12:19:10|10=231|'"
"33","b'""'","b'8=FIX.4.2|9=147|35=D|34=1|49=BANZAI|52=20241208-12:19:16.781|56=FIXIMULATORTRADE|11=1-1733660350.454578|21=1|38=500|40=1|54=1|55=""|44=-64|59=1|60=20241208-12:19:10|10=038|'","b'8=FIX.4.2|9=149|35=D|34=39|49=BANZAI|52=20241208-12:19:16.791|56=FIXIMULATORTRADE|11=1-1733660350.454578|21=1|38=500|40=1|44=-64|54=1|55=""|59=1|60=20241208-12:19:10|10=236|'"
"34","b'#'","b'8=FIX.4.2|9=147|35=D|34=1|49=BANZAI|52=20241208-12:19:16.946|56=FIXIMULATORTRADE|11=1-1733660350.454578|21=1|38=500|40=1|54=1|55=#|44=-64|59=1|60=20241208-12:19:10|10=038|'","b'8=FIX.4.2|9=149|35=D|34=40|49=BANZAI|52=20241208-12:19:16.957|56=FIXIMULATORTRADE|11=1-1733660350.454578|21=1|38=500|40=1|44=-64|54=1|55=#|59=1|60=20241208-12:19:10|10=233|'"
"35","b'$'","b'8=FIX.4.2|9=147|35=D|34=1|49=BANZAI|52=20241208-12:19:17.113|56=FIXIMULATORTRADE|11=1-1733660350.454578|21=1|38=500|40=1|54=1|55=$|44=-64|59=1|60=20241208-12:19:10|10=038|'","b'8=FIX.4.2|9=149|35=D|34=41|49=BANZAI|52=20241208-12:19:17.123|56=FIXIMULATORTRADE|11=1-1733660350.454578|21=1|38=500|40=1|44=-64|54=1|55=$|59=1|60=20241208-12:19:10|10=221|'"
"36","b'%'","b'8=FIX.4.2|9=147|35=D|34=1|49=BANZAI|52=20241208-12:19:17.278|56=FIXIMULATORTRADE|11=1-1733660350.454578|21=1|38=500|40=1|54=1|55=%|44=-64|59=1|60=20241208-12:19:10|10=038|'","b'8=FIX.4.2|9=149|35=D|34=42|49=BANZAI|52=20241208-12:19:17.288|56=FIXIMULATORTRADE|11=1-1733660350.454578|21=1|38=500|40=1|44=-64|54=1|55=%|59=1|60=20241208-12:19:10|10=235|'"
"37","b'&'","b'8=FIX.4.2|9=147|35=D|34=1|49=BANZAI|52=20241208-12:19:17.442|56=FIXIMULATORTRADE|11=1-1733660350.454578|21=1|38=500|40=1|54=1|55=&|44=-64|59=1|60=20241208-12:19:10|10=038|'","b'8=FIX.4.2|9=149|35=D|34=43|49=BANZAI|52=20241208-12:19:17.449|56=FIXIMULATORTRADE|11=1-1733660350.454578|21=1|38=500|40=1|44=-64|54=1|55=&|59=1|60=20241208-12:19:10|10=236|'"
"38","b""'""","b""8=FIX.4.2|9=147|35=D|34=1|49=BANZAI|52=20241208-12:19:17.604|56=FIXIMULATORTRADE|11=1-1733660350.454578|21=1|38=500|40=1|54=1|55='|44=-64|59=1|60=20241208-12:19:10|10=038|""","b""8=FIX.4.2|9=149|35=D|34=44|49=BANZAI|52=20241208-12:19:17.611|56=FIXIMULATORTRADE|11=1-1733660350.454578|21=1|38=500|40=1|44=-64|54=1|55='|59=1|60=20241208-12:19:10|10=229|"""
"39","b'('","b'8=FIX.4.2|9=147|35=D|34=1|49=BANZAI|52=20241208-12:19:17.766|56=FIXIMULATORTRADE|11=1-1733660350.454578|21=1|38=500|40=1|54=1|55=(|44=-64|59=1|60=20241208-12:19:10|10=038|'","b'8=FIX.4.2|9=149|35=D|34=45|49=BANZAI|52=20241208-12:19:17.776|56=FIXIMULATORTRADE|11=1-1733660350.454578|21=1|38=500|40=1|44=-64|54=1|55=(|59=1|60=20241208-12:19:10|10=243|'"
"40","b')'","b'8=FIX.4.2|9=147|35=D|34=1|49=BANZAI|52=20241208-12:19:17.933|56=FIXIMULATORTRADE|11=1-1733660350.454578|21=1|38=500|40=1|54=1|55=)|44=-64|59=1|60=20241208-12:19:10|10=038|'","b'8=FIX.4.2|9=149|35=D|34=46|49=BANZAI|52=20241208-12:19:17.942|56=FIXIMULATORTRADE|11=1-1733660350.454578|21=1|38=500|40=1|44=-64|54=1|55=)|59=1|60=20241208-12:19:10|10=240|'"
"41","b'*'","b'8=FIX.4.2|9=147|35=D|34=1|49=BANZAI|52=20241208-12:19:18.097|56=FIXIMULATORTRADE|11=1-1733660350.454578|21=1|38=500|40=1|54=1|55=*|44=-64|59=1|60=20241208-12:19:10|10=038|'","b'8=FIX.4.2|9=149|35=D|34=47|49=BANZAI|52=20241208-12:19:18.104|56=FIXIMULATORTRADE|11=1-1733660350.454578|21=1|38=500|40=1|44=-64|54=1|55=*|59=1|60=20241208-12:19:10|10=233|'"
"42","b'+'","b'8=FIX.4.2|9=147|35=D|34=1|49=BANZAI|52=20241208-12:19:18.259|56=FIXIMULATORTRADE|11=1-1733660350.454578|21=1|38=500|40=1|54=1|55=+|44=-64|59=1|60=20241208-12:19:10|10=038|'","b'8=FIX.4.2|9=149|35=D|34=48|49=BANZAI|52=20241208-12:19:18.269|56=FIXIMULATORTRADE|11=1-1733660350.454578|21=1|38=500|40=1|44=-64|54=1|55=+|59=1|60=20241208-12:19:10|10=247|'"
"43","b','","b'8=FIX.4.2|9=147|35=D|34=1|49=BANZAI|52=20241208-12:19:18.424|56=FIXIMULATORTRADE|11=1-1733660350.454578|21=1|38=500|40=1|54=1|55=,|44=-64|59=1|60=20241208-12:19:10|10=038|'","b'8=FIX.4.2|9=149|35=D|34=49|49=BANZAI|52=20241208-12:19:18.434|56=FIXIMULATORTRADE|11=1-1733660350.454578|21=1|38=500|40=1|44=-64|54=1|55=,|59=1|60=20241208-12:19:10|10=243|'"
"44","b'-'","b'8=FIX.4.2|9=147|35=D|34=1|49=BANZAI|52=20241208-12:19:18.590|56=FIXIMULATORTRADE|11=1-1733660350.454578|21=1|38=500|40=1|54=1|55=-|44=-64|59=1|60=20241208-12:19:10|10=038|'","b'8=FIX.4.2|9=149|35=D|34=50|49=BANZAI|52=20241208-12:19:18.600|56=FIXIMULATORTRADE|11=1-1733660350.454578|21=1|38=500|40=1|44=-64|54=1|55=-|59=1|60=20241208-12:19:10|10=231|'"
"45","b'.'","b'8=FIX.4.2|9=147|35=D|34=1|49=BANZAI|52=20241208-12:19:18.755|56=FIXIMULATORTRADE|11=1-1733660350.454578|21=1|38=500|40=1|54=1|55=.|44=-64|59=1|60=20241208-12:19:10|10=038|'","b'8=FIX.4.2|9=149|35=D|34=51|49=BANZAI|52=20241208-12:19:18.766|56=FIXIMULATORTRADE|11=1-1733660350.454578|21=1|38=500|40=1|44=-64|54=1|55=.|59=1|60=20241208-12:19:10|10=246|'"
"46","b'/'","b'8=FIX.4.2|9=147|35=D|34=1|49=BANZAI|52=20241208-12:19:18.923|56=FIXIMULATORTRADE|11=1-1733660350.454578|21=1|38=500|40=1|54=1|55=/|44=-64|59=1|60=20241208-12:19:10|10=038|'","b'8=FIX.4.2|9=149|35=D|34=52|49=BANZAI|52=20241208-12:19:18.930|56=FIXIMULATORTRADE|11=1-1733660350.454578|21=1|38=500|40=1|44=-64|54=1|55=/|59=1|60=20241208-12:19:10|10=241|'"
"47","b'0'","b'8=FIX.4.2|9=147|35=D|34=1|49=BANZAI|52=20241208-12:19:19.085|56=FIXIMULATORTRADE|11=1-1733660350.454578|21=1|38=500|40=1|54=1|55=0|44=-64|59=1|60=20241208-12:19:10|10=038|'","b'8=FIX.4.2|9=149|35=D|34=53|49=BANZAI|52=20241208-12:19:19.093|56=FIXIMULATORTRADE|11=1-1733660350.454578|21=1|38=500|40=1|44=-64|54=1|55=0|59=1|60=20241208-12:19:10|10=244|'"
"48","b'1'","b'8=FIX.4.2|9=147|35=D|34=1|49=BANZAI|52=20241208-12:19:19.250|56=FIXIMULATORTRADE|11=1-1733660350.454578|21=1|38=500|40=1|54=1|55=1|44=-64|59=1|60=20241208-12:19:10|10=038|'","b'8=FIX.4.2|9=149|35=D|34=54|49=BANZAI|52=20241208-12:19:19.257|56=FIXIMULATORTRADE|11=1-1733660350.454578|21=1|38=500|40=1|44=-64|54=1|55=1|59=1|60=20241208-12:19:10|10=248|'"
"49","b'2'","b'8=FIX.4.2|9=147|35=D|34=1|49=BANZAI|52=20241208-12:19:19.412|56=FIXIMULATORTRADE|11=1-1733660350.454578|21=1|38=500|40=1|54=1|55=2|44=-64|59=1|60=20241208-12:19:10|10=038|'","b'8=FIX.4.2|9=149|35=D|34=55|49=BANZAI|52=20241208-12:19:19.423|56=FIXIMULATORTRADE|11=1-1733660350.454578|21=1|38=500|40=1|44=-64|54=1|55=2|59=1|60=20241208-12:19:10|10=245|'"
"50","b'3'","b'8=FIX.4.2|9=147|35=D|34=1|49=BANZAI|52=20241208-12:19:19.580|56=FIXIMULATORTRADE|11=1-1733660350.454578|21=1|38=500|40=1|54=1|55=3|44=-64|59=1|60=20241208-12:19:10|10=038|'","b'8=FIX.4.2|9=149|35=D|34=56|49=BANZAI|52=20241208-12:19:19.591|56=FIXIMULATORTRADE|11=1-1733660350.454578|21=1|38=500|40=1|44=-64|54=1|55=3|59=1|60=20241208-12:19:10|10=253|'"
"51","b'4'","b'8=FIX.4.2|9=147|35=D|34=1|49=BANZAI|52=20241208-12:19:19.746|56=FIXIMULATORTRADE|11=1-1733660350.454578|21=1|38=500|40=1|54=1|55=4|44=-64|59=1|60=20241208-12:19:10|10=038|'","b'8=FIX.4.2|9=149|35=D|34=57|49=BANZAI|52=20241208-12:19:19.756|56=FIXIMULATORTRADE|11=1-1733660350.454578|21=1|38=500|40=1|44=-64|54=1|55=4|59=1|60=20241208-12:19:10|10=002|'"
"52","b'5'","b'8=FIX.4.2|9=147|35=D|34=1|49=BANZAI|52=20241208-12:19:19.912|56=FIXIMULATORTRADE|11=1-1733660350.454578|21=1|38=500|40=1|54=1|55=5|44=-64|59=1|60=20241208-12:19:10|10=038|'","b'8=FIX.4.2|9=149|35=D|34=58|49=BANZAI|52=20241208-12:19:19.923|56=FIXIMULATORTRADE|11=1-1733660350.454578|21=1|38=500|40=1|44=-64|54=1|55=5|59=1|60=20241208-12:19:10|10=000|'"
"53","b'6'","b'8=FIX.4.2|9=147|35=D|34=1|49=BANZAI|52=20241208-12:19:20.079|56=FIXIMULATORTRADE|11=1-1733660350.454578|21=1|38=500|40=1|54=1|55=6|44=-64|59=1|60=20241208-12:19:10|10=038|'","b'8=FIX.4.2|9=149|35=D|34=59|49=BANZAI|52=20241208-12:19:20.090|56=FIXIMULATORTRADE|11=1-1733660350.454578|21=1|38=500|40=1|44=-64|54=1|55=6|59=1|60=20241208-12:19:10|10=245|'"
"54","b'7'","b'8=FIX.4.2|9=147|35=D|34=1|49=BANZAI|52=20241208-12:19:20.246|56=FIXIMULATORTRADE|11=1-1733660350.454578|21=1|38=500|40=1|54=1|55=7|44=-64|59=1|60=20241208-12:19:10|10=038|'","b'8=FIX.4.2|9=149|35=D|34=60|49=BANZAI|52=20241208-12:19:20.256|56=FIXIMULATORTRADE|11=1-1733660350.454578|21=1|38=500|40=1|44=-64|54=1|55=7|59=1|60=20241208-12:19:10|10=242|'"
"55","b'8'","b'8=FIX.4.2|9=147|35=D|34=1|49=BANZAI|52=20241208-12:19:20.411|56=FIXIMULATORTRADE|11=1-1733660350.454578|21=1|38=500|40=1|54=1|55=8|44=-64|59=1|60=20241208-12:19:10|10=038|'","b'8=FIX.4.2|9=149|35=D|34=61|49=BANZAI|52=20241208-12:19:20.418|56=FIXIMULATORTRADE|11=1-1733660350.454578|21=1|38=500|40=1|44=-64|54=1|55=8|59=1|60=20241208-12:19:10|10=244|'"
"56","b'9'","b'8=FIX.4.2|9=147|35=D|34=1|49=BANZAI|52=20241208-12:19:20.572|56=FIXIMULATORTRADE|11=1-1733660350.454578|21=1|38=500|40=1|54=1|55=9|44=-64|59=1|60=20241208-12:19:10|10=038|'","b'8=FIX.4.2|9=149|35=D|34=62|49=BANZAI|52=20241208-12:19:20.582|56=FIXIMULATORTRADE|11=1-1733660350.454578|21=1|38=500|40=1|44=-64|54=1|55=9|59=1|60=20241208-12:19:10|10=248|'"
"57","b':'","b'8=FIX.4.2|9=147|35=D|34=1|49=BANZAI|52=20241208-12:19:20.738|56=FIXIMULATORTRADE|11=1-1733660350.454578|21=1|38=500|40=1|54=1|55=:|44=-64|59=1|60=20241208-12:19:10|10=038|'","b'8=FIX.4.2|9=149|35=D|34=63|49=BANZAI|52=20241208-12:19:20.749|56=FIXIMULATORTRADE|11=1-1733660350.454578|21=1|38=500|40=1|44=-64|54=1|55=:|59=1|60=20241208-12:19:10|10=255|'"
"58","b';'","b'8=FIX.4.2|9=147|35=D|34=1|49=BANZAI|52=20241208-12:19:20.905|56=FIXIMULATORTRADE|11=1-1733660350.454578|21=1|38=500|40=1|54=1|55=;|44=-64|59=1|60=20241208-12:19:10|10=038|'","b'8=FIX.4.2|9=149|35=D|34=64|49=BANZAI|52=20241208-12:19:20.914|56=FIXIMULATORTRADE|11=1-1733660350.454578|21=1|38=500|40=1|44=-64|54=1|55=;|59=1|60=20241208-12:19:10|10=251|'"
"59","b'<'","b'8=FIX.4.2|9=147|35=D|34=1|49=BANZAI|52=20241208-12:19:21.069|56=FIXIMULATORTRADE|11=1-1733660350.454578|21=1|38=500|40=1|54=1|55=<|44=-64|59=1|60=20241208-12:19:10|10=038|'","b'8=FIX.4.2|9=149|35=D|34=65|49=BANZAI|52=20241208-12:19:21.076|56=FIXIMULATORTRADE|11=1-1733660350.454578|21=1|38=500|40=1|44=-64|54=1|55=<|59=1|60=20241208-12:19:10|10=253|'"
"60","b'>'","b'8=FIX.4.2|9=147|35=D|34=1|49=BANZAI|52=20241208-12:19:21.232|56=FIXIMULATORTRADE|11=1-1733660350.454578|21=1|38=500|40=1|54=1|55=>|44=-64|59=1|60=20241208-12:19:10|10=038|'","b'8=FIX.4.2|9=149|35=D|34=66|49=BANZAI|52=20241208-12:19:21.239|56=FIXIMULATORTRADE|11=1-1733660350.454578|21=1|38=500|40=1|44=-64|54=1|55=>|59=1|60=20241208-12:19:10|10=001|'"
"61","b'?'","b'8=FIX.4.2|9=147|35=D|34=1|49=BANZAI|52=20241208-12:19:21.395|56=FIXIMULATORTRADE|11=1-1733660350.454578|21=1|38=500|40=1|54=1|55=?|44=-64|59=1|60=20241208-12:19:10|10=038|'","b'8=FIX.4.2|9=149|35=D|34=67|49=BANZAI|52=20241208-12:19:21.403|56=FIXIMULATORTRADE|11=1-1733660350.454578|21=1|38=500|40=1|44=-64|54=1|55=?|59=1|60=20241208-12:19:10|10=252|'"
"62","b'@'","b'8=FIX.4.2|9=147|35=D|34=1|49=BANZAI|52=20241208-12:19:21.558|56=FIXIMULATORTRADE|11=1-1733660350.454578|21=1|38=500|40=1|54=1|55=@|44=-64|59=1|60=20241208-12:19:10|10=038|'","b'8=FIX.4.2|9=149|35=D|34=68|49=BANZAI|52=20241208-12:19:21.566|56=FIXIMULATORTRADE|11=1-1733660350.454578|21=1|38=500|40=1|44=-64|54=1|55=@|59=1|60=20241208-12:19:10|10=008|'"
"63","b'A'","b'8=FIX.4.2|9=147|35=D|34=1|49=BANZAI|52=20241208-12:19:21.721|56=FIXIMULATORTRADE|11=1-1733660350.454578|21=1|38=500|40=1|54=1|55=A|44=-64|59=1|60=20241208-12:19:10|10=038|'","b'8=FIX.4.2|9=149|35=D|34=69|49=BANZAI|52=20241208-12:19:21.729|56=FIXIMULATORTRADE|11=1-1733660350.454578|21=1|38=500|40=1|44=-64|54=1|55=A|59=1|60=20241208-12:19:10|10=011|'"
"64","b'B'","b'8=FIX.4.2|9=147|35=D|34=1|49=BANZAI|52=20241208-12:19:21.885|56=FIXIMULATORTRADE|11=1-1733660350.454578|21=1|38=500|40=1|54=1|55=B|44=-64|59=1|60=20241208-12:19:10|10=038|'","b'8=FIX.4.2|9=149|35=D|34=70|49=BANZAI|52=20241208-12:19:21.892|56=FIXIMULATORTRADE|11=1-1733660350.454578|21=1|38=500|40=1|44=-64|54=1|55=B|59=1|60=20241208-12:19:10|10=005|'"
"65","b'C'","b'8=FIX.4.2|9=147|35=D|34=1|49=BANZAI|52=20241208-12:19:22.047|56=FIXIMULATORTRADE|11=1-1733660350.454578|21=1|38=500|40=1|54=1|55=C|44=-64|59=1|60=20241208-12:19:10|10=038|'","b'8=FIX.4.2|9=149|35=D|34=71|49=BANZAI|52=20241208-12:19:22.057|56=FIXIMULATORTRADE|11=1-1733660350.454578|21=1|38=500|40=1|44=-64|54=1|55=C|59=1|60=20241208-12:19:10|10=001|'"
"66","b'D'","b'8=FIX.4.2|9=147|35=D|34=1|49=BANZAI|52=20241208-12:19:22.213|56=FIXIMULATORTRADE|11=1-1733660350.454578|21=1|38=500|40=1|54=1|55=D|44=-64|59=1|60=20241208-12:19:10|10=038|'","b'8=FIX.4.2|9=149|35=D|34=72|49=BANZAI|52=20241208-12:19:22.224|56=FIXIMULATORTRADE|11=1-1733660350.454578|21=1|38=500|40=1|44=-64|54=1|55=D|59=1|60=20241208-12:19:10|10=255|'"
"67","b'E'","b'8=FIX.4.2|9=147|35=D|34=1|49=BANZAI|52=20241208-12:19:22.381|56=FIXIMULATORTRADE|11=1-1733660350.454578|21=1|38=500|40=1|54=1|55=E|44=-64|59=1|60=20241208-12:19:10|10=038|'","b'8=FIX.4.2|9=149|35=D|34=73|49=BANZAI|52=20241208-12:19:22.389|56=FIXIMULATORTRADE|11=1-1733660350.454578|21=1|38=500|40=1|44=-64|54=1|55=E|59=1|60=20241208-12:19:10|10=013|'"
"68","b'F'","b'8=FIX.4.2|9=147|35=D|34=1|49=BANZAI|52=20241208-12:19:22.543|56=FIXIMULATORTRADE|11=1-1733660350.454578|21=1|38=500|40=1|54=1|55=F|44=-64|59=1|60=20241208-12:19:10|10=038|'","b'8=FIX.4.2|9=149|35=D|34=74|49=BANZAI|52=20241208-12:19:22.555|56=FIXIMULATORTRADE|11=1-1733660350.454578|21=1|38=500|40=1|44=-64|54=1|55=F|59=1|60=20241208-12:19:10|10=010|'"
"69","b'G'","b'8=FIX.4.2|9=147|35=D|34=1|49=BANZAI|52=20241208-12:19:22.711|56=FIXIMULATORTRADE|11=1-1733660350.454578|21=1|38=500|40=1|54=1|55=G|44=-64|59=1|60=20241208-12:19:10|10=038|'","b'8=FIX.4.2|9=149|35=D|34=75|49=BANZAI|52=20241208-12:19:22.721|56=FIXIMULATORTRADE|11=1-1733660350.454578|21=1|38=500|40=1|44=-64|54=1|55=G|59=1|60=20241208-12:19:10|10=007|'"
"70","b'H'","b'8=FIX.4.2|9=147|35=D|34=1|49=BANZAI|52=20241208-12:19:22.878|56=FIXIMULATORTRADE|11=1-1733660350.454578|21=1|38=500|40=1|54=1|55=H|44=-64|59=1|60=20241208-12:19:10|10=038|'","b'8=FIX.4.2|9=149|35=D|34=76|49=BANZAI|52=20241208-12:19:22.885|56=FIXIMULATORTRADE|11=1-1733660350.454578|21=1|38=500|40=1|44=-64|54=1|55=H|59=1|60=20241208-12:19:10|10=020|'"
"71","b'I'","b'8=FIX.4.2|9=147|35=D|34=1|49=BANZAI|52=20241208-12:19:23.040|56=FIXIMULATORTRADE|11=1-1733660350.454578|21=1|38=500|40=1|54=1|55=I|44=-64|59=1|60=20241208-12:19:10|10=038|'","b'8=FIX.4.2|9=149|35=D|34=77|49=BANZAI|52=20241208-12:19:23.049|56=FIXIMULATORTRADE|11=1-1733660350.454578|21=1|38=500|40=1|44=-64|54=1|55=I|59=1|60=20241208-12:19:10|10=015|'"
"72","b'J'","b'8=FIX.4.2|9=147|35=D|34=1|49=BANZAI|52=20241208-12:19:23.206|56=FIXIMULATORTRADE|11=1-1733660350.454578|21=1|38=500|40=1|54=1|55=J|44=-64|59=1|60=20241208-12:19:10|10=038|'","b'8=FIX.4.2|9=149|35=D|34=78|49=BANZAI|52=20241208-12:19:23.216|56=FIXIMULATORTRADE|11=1-1733660350.454578|21=1|38=500|40=1|44=-64|54=1|55=J|59=1|60=20241208-12:19:10|10=013|'"
"73","b'K'","b'8=FIX.4.2|9=147|35=D|34=1|49=BANZAI|52=20241208-12:19:23.371|56=FIXIMULATORTRADE|11=1-1733660350.454578|21=1|38=500|40=1|54=1|55=K|44=-64|59=1|60=20241208-12:19:10|10=038|'","b'8=FIX.4.2|9=149|35=D|34=79|49=BANZAI|52=20241208-12:19:23.382|56=FIXIMULATORTRADE|11=1-1733660350.454578|21=1|38=500|40=1|44=-64|54=1|55=K|59=1|60=20241208-12:19:10|10=019|'"
"74","b'L'","b'8=FIX.4.2|9=147|35=D|34=1|49=BANZAI|52=20241208-12:19:23.538|56=FIXIMULATORTRADE|11=1-1733660350.454578|21=1|38=500|40=1|54=1|55=L|44=-64|59=1|60=20241208-12:19:10|10=038|'","b'8=FIX.4.2|9=149|35=D|34=80|49=BANZAI|52=20241208-12:19:23.549|56=FIXIMULATORTRADE|11=1-1733660350.454578|21=1|38=500|40=1|44=-64|54=1|55=L|59=1|60=20241208-12:19:10|10=017|'"
"75","b'M'","b'8=FIX.4.2|9=147|35=D|34=1|49=BANZAI|52=20241208-12:19:23.705|56=FIXIMULATORTRADE|11=1-1733660350.454578|21=1|38=500|40=1|54=1|55=M|44=-64|59=1|60=20241208-12:19:10|10=038|'","b'8=FIX.4.2|9=149|35=D|34=81|49=BANZAI|52=20241208-12:19:23.714|56=FIXIMULATORTRADE|11=1-1733660350.454578|21=1|38=500|40=1|44=-64|54=1|55=M|59=1|60=20241208-12:19:10|10=013|'"
"76","b'N'","b'8=FIX.4.2|9=147|35=D|34=1|49=BANZAI|52=20241208-12:19:23.871|56=FIXIMULATORTRADE|11=1-1733660350.454578|21=1|38=500|40=1|54=1|55=N|44=-64|59=1|60=20241208-12:19:10|10=038|'","b'8=FIX.4.2|9=149|35=D|34=82|49=BANZAI|52=20241208-12:19:23.878|56=FIXIMULATORTRADE|11=1-1733660350.454578|21=1|38=500|40=1|44=-64|54=1|55=N|59=1|60=20241208-12:19:10|10=026|'"
"77","b'O'","b'8=FIX.4.2|9=147|35=D|34=1|49=BANZAI|52=20241208-12:19:24.033|56=FIXIMULATORTRADE|11=1-1733660350.454578|21=1|38=500|40=1|54=1|55=O|44=-64|59=1|60=20241208-12:19:10|10=038|'","b'8=FIX.4.2|9=149|35=D|34=83|49=BANZAI|52=20241208-12:19:24.043|56=FIXIMULATORTRADE|11=1-1733660350.454578|21=1|38=500|40=1|44=-64|54=1|55=O|59=1|60=20241208-12:19:10|10=013|'"
"78","b'P'","b'8=FIX.4.2|9=147|35=D|34=1|49=BANZAI|52=20241208-12:19:24.198|56=FIXIMULATORTRADE|11=1-1733660350.454578|21=1|38=500|40=1|54=1|55=P|44=-64|59=1|60=20241208-12:19:10|10=038|'","b'8=FIX.4.2|9=149|35=D|34=84|49=BANZAI|52=20241208-12:19:24.206|56=FIXIMULATORTRADE|11=1-1733660350.454578|21=1|38=500|40=1|44=-64|54=1|55=P|59=1|60=20241208-12:19:10|10=016|'"
"79","b'Q'","b'8=FIX.4.2|9=147|35=D|34=1|49=BANZAI|52=20241208-12:19:24.361|56=FIXIMULATORTRADE|11=1-1733660350.454578|21=1|38=500|40=1|54=1|55=Q|44=-64|59=1|60=20241208-12:19:10|10=038|'","b'8=FIX.4.2|9=149|35=D|34=85|49=BANZAI|52=20241208-12:19:24.368|56=FIXIMULATORTRADE|11=1-1733660350.454578|21=1|38=500|40=1|44=-64|54=1|55=Q|59=1|60=20241208-12:19:10|10=027|'"
"80","b'R'","b'8=FIX.4.2|9=147|35=D|34=1|49=BANZAI|52=20241208-12:19:24.522|56=FIXIMULATORTRADE|11=1-1733660350.454578|21=1|38=500|40=1|54=1|55=R|44=-64|59=1|60=20241208-12:19:10|10=038|'","b'8=FIX.4.2|9=149|35=D|34=86|49=BANZAI|52=20241208-12:19:24.532|56=FIXIMULATORTRADE|11=1-1733660350.454578|21=1|38=500|40=1|44=-64|54=1|55=R|59=1|60=20241208-12:19:10|10=022|'"
"81","b'S'","b'8=FIX.4.2|9=147|35=D|34=1|49=BANZAI|52=20241208-12:19:24.689|56=FIXIMULATORTRADE|11=1-1733660350.454578|21=1|38=500|40=1|54=1|55=S|44=-64|59=1|60=20241208-12:19:10|10=038|'","b'8=FIX.4.2|9=149|35=D|34=87|49=BANZAI|52=20241208-12:19:24.697|56=FIXIMULATORTRADE|11=1-1733660350.454578|21=1|38=500|40=1|44=-64|54=1|55=S|59=1|60=20241208-12:19:10|10=036|'"
"82","b'T'","b'8=FIX.4.2|9=147|35=D|34=1|49=BANZAI|52=20241208-12:19:24.851|56=FIXIMULATORTRADE|11=1-1733660350.454578|21=1|38=500|40=1|54=1|55=T|44=-64|59=1|60=20241208-12:19:10|10=038|'","b'8=FIX.4.2|9=149|35=D|34=88|49=BANZAI|52=20241208-12:19:24.859|56=FIXIMULATORTRADE|11=1-1733660350.454578|21=1|38=500|40=1|44=-64|54=1|55=T|59=1|60=20241208-12:19:10|10=038|'"
"83","b'U'","b'8=FIX.4.2|9=147|35=D|34=1|49=BANZAI|52=20241208-12:19:25.014|56=FIXIMULATORTRADE|11=1-1733660350.454578|21=1|38=500|40=1|54=1|55=U|44=-64|59=1|60=20241208-12:19:10|10=038|'","b'8=FIX.4.2|9=149|35=D|34=89|49=BANZAI|52=20241208-12:19:25.021|56=FIXIMULATORTRADE|11=1-1733660350.454578|21=1|38=500|40=1|44=-64|54=1|55=U|59=1|60=20241208-12:19:10|10=022|'"
"84","b'V'","b'8=FIX.4.2|9=147|35=D|34=1|49=BANZAI|52=20241208-12:19:25.176|56=FIXIMULATORTRADE|11=1-1733660350.454578|21=1|38=500|40=1|54=1|55=V|44=-64|59=1|60=20241208-12:19:10|10=038|'","b'8=FIX.4.2|9=149|35=D|34=90|49=BANZAI|52=20241208-12:19:25.186|56=FIXIMULATORTRADE|11=1-1733660350.454578|21=1|38=500|40=1|44=-64|54=1|55=V|59=1|60=20241208-12:19:10|10=027|'"
"85","b'W'","b'8=FIX.4.2|9=147|35=D|34=1|49=BANZAI|52=20241208-12:19:25.343|56=FIXIMULATORTRADE|11=1-1733660350.454578|21=1|38=500|40=1|54=1|55=W|44=-64|59=1|60=20241208-12:19:10|10=038|'","b'8=FIX.4.2|9=149|35=D|34=91|49=BANZAI|52=20241208-12:19:25.352|56=FIXIMULATORTRADE|11=1-1733660350.454578|21=1|38=500|40=1|44=-64|54=1|55=W|59=1|60=20241208-12:19:10|10=024|'"
"86","b'X'","b'8=FIX.4.2|9=147|35=D|34=1|49=BANZAI|52=20241208-12:19:25.507|56=FIXIMULATORTRADE|11=1-1733660350.454578|21=1|38=500|40=1|54=1|55=X|44=-64|59=1|60=20241208-12:19:10|10=038|'","b'8=FIX.4.2|9=149|35=D|34=92|49=BANZAI|52=20241208-12:19:25.517|56=FIXIMULATORTRADE|11=1-1733660350.454578|21=1|38=500|40=1|44=-64|54=1|55=X|59=1|60=20241208-12:19:10|10=029|'"
"87","b'Y'","b'8=FIX.4.2|9=147|35=D|34=1|49=BANZAI|52=20241208-12:19:25.673|56=FIXIMULATORTRADE|11=1-1733660350.454578|21=1|38=500|40=1|54=1|55=Y|44=-64|59=1|60=20241208-12:19:10|10=038|'","b'8=FIX.4.2|9=149|35=D|34=93|49=BANZAI|52=20241208-12:19:25.685|56=FIXIMULATORTRADE|11=1-1733660350.454578|21=1|38=500|40=1|44=-64|54=1|55=Y|59=1|60=20241208-12:19:10|10=037|'"
"88","b'Z'","b'8=FIX.4.2|9=147|35=D|34=1|49=BANZAI|52=20241208-12:19:25.842|56=FIXIMULATORTRADE|11=1-1733660350.454578|21=1|38=500|40=1|54=1|55=Z|44=-64|59=1|60=20241208-12:19:10|10=038|'","b'8=FIX.4.2|9=149|35=D|34=94|49=BANZAI|52=20241208-12:19:25.852|56=FIXIMULATORTRADE|11=1-1733660350.454578|21=1|38=500|40=1|44=-64|54=1|55=Z|59=1|60=20241208-12:19:10|10=035|'"
"89","b'['","b'8=FIX.4.2|9=147|35=D|34=1|49=BANZAI|52=20241208-12:19:26.008|56=FIXIMULATORTRADE|11=1-1733660350.454578|21=1|38=500|40=1|54=1|55=[|44=-64|59=1|60=20241208-12:19:10|10=038|'","b'8=FIX.4.2|9=149|35=D|34=95|49=BANZAI|52=20241208-12:19:26.018|56=FIXIMULATORTRADE|11=1-1733660350.454578|21=1|38=500|40=1|44=-64|54=1|55=[|59=1|60=20241208-12:19:10|10=032|'"
"90","b'\\\\'","b'8=FIX.4.2|9=147|35=D|34=1|49=BANZAI|52=20241208-12:19:26.174|56=FIXIMULATORTRADE|11=1-1733660350.454578|21=1|38=500|40=1|54=1|55=\\\\|44=-64|59=1|60=20241208-12:19:10|10=038|'","b'8=FIX.4.2|9=149|35=D|34=96|49=BANZAI|52=20241208-12:19:26.181|56=FIXIMULATORTRADE|11=1-1733660350.454578|21=1|38=500|40=1|44=-64|54=1|55=\\\\|59=1|60=20241208-12:19:10|10=035|'"
"91","b']'","b'8=FIX.4.2|9=147|35=D|34=1|49=BANZAI|52=20241208-12:19:26.336|56=FIXIMULATORTRADE|11=1-1733660350.454578|21=1|38=500|40=1|54=1|55=]|44=-64|59=1|60=20241208-12:19:10|10=038|'","b'8=FIX.4.2|9=149|35=D|34=97|49=BANZAI|52=20241208-12:19:26.344|56=FIXIMULATORTRADE|11=1-1733660350.454578|21=1|38=500|40=1|44=-64|54=1|55=]|59=1|60=20241208-12:19:10|10=038|'"
"92","b'^'","b'8=FIX.4.2|9=147|35=D|34=1|49=BANZAI|52=20241208-12:19:26.498|56=FIXIMULATORTRADE|11=1-1733660350.454578|21=1|38=500|40=1|54=1|55=^|44=-64|59=1|60=20241208-12:19:10|10=038|'","b'8=FIX.4.2|9=149|35=D|34=98|49=BANZAI|52=20241208-12:19:26.508|56=FIXIMULATORTRADE|11=1-1733660350.454578|21=1|38=500|40=1|44=-64|54=1|55=^|59=1|60=20241208-12:19:10|10=042|'"
"93","b'_'","b'8=FIX.4.2|9=147|35=D|34=1|49=BANZAI|52=20241208-12:19:26.663|56=FIXIMULATORTRADE|11=1-1733660350.454578|21=1|38=500|40=1|54=1|55=_|44=-64|59=1|60=20241208-12:19:10|10=038|'","b'8=FIX.4.2|9=149|35=D|34=99|49=BANZAI|52=20241208-12:19:26.671|56=FIXIMULATORTRADE|11=1-1733660350.454578|21=1|38=500|40=1|44=-64|54=1|55=_|59=1|60=20241208-12:19:10|10=045|'"
"94","b'`'","b'8=FIX.4.2|9=147|35=D|34=1|49=BANZAI|52=20241208-12:19:26.826|56=FIXIMULATORTRADE|11=1-1733660350.454578|21=1|38=500|40=1|54=1|55=`|44=-64|59=1|60=20241208-12:19:10|10=038|'","b'8=FIX.4.2|9=150|35=D|34=100|49=BANZAI|52=20241208-12:19:26.834|56=FIXIMULATORTRADE|11=1-1733660350.454578|21=1|38=500|40=1|44=-64|54=1|55=`|59=1|60=20241208-12:19:10|10=070|'"
"95","b'a'","b'8=FIX.4.2|9=147|35=D|34=1|49=BANZAI|52=20241208-12:19:26.988|56=FIXIMULATORTRADE|11=1-1733660350.454578|21=1|38=500|40=1|54=1|55=a|44=-64|59=1|60=20241208-12:19:10|10=038|'","b'8=FIX.4.2|9=150|35=D|34=101|49=BANZAI|52=20241208-12:19:26.995|56=FIXIMULATORTRADE|11=1-1733660350.454578|21=1|38=500|40=1|44=-64|54=1|55=a|59=1|60=20241208-12:19:10|10=080|'"
"96","b'b'","b'8=FIX.4.2|9=147|35=D|34=1|49=BANZAI|52=20241208-12:19:27.150|56=FIXIMULATORTRADE|11=1-1733660350.454578|21=1|38=500|40=1|54=1|55=b|44=-64|59=1|60=20241208-12:19:10|10=038|'","b'8=FIX.4.2|9=150|35=D|34=102|49=BANZAI|52=20241208-12:19:27.158|56=FIXIMULATORTRADE|11=1-1733660350.454578|21=1|38=500|40=1|44=-64|54=1|55=b|59=1|60=20241208-12:19:10|10=074|'"
"97","b'c'","b'8=FIX.4.2|9=147|35=D|34=1|49=BANZAI|52=20241208-12:19:27.312|56=FIXIMULATORTRADE|11=1-1733660350.454578|21=1|38=500|40=1|54=1|55=c|44=-64|59=1|60=20241208-12:19:10|10=038|'","b'8=FIX.4.2|9=150|35=D|34=103|49=BANZAI|52=20241208-12:19:27.320|56=FIXIMULATORTRADE|11=1-1733660350.454578|21=1|38=500|40=1|44=-64|54=1|55=c|59=1|60=20241208-12:19:10|10=067|'"
